:100000000C94E4000C945E010C9481010C940101A9
:100010000C9401010C9401010C9401010C94010158
:100020000C9401010C9401010C9401010C94010148
:100030000C9401010C94A4010C9401010C94010195
:100040000C9401010C9401010C9401010C94010128
:100050000C9401010C9401010C9401010C94010118
:100060000C9401010C9401016E616E00696E6600D2
:1000700000407A10F35A00A0724E18090010A5D45F
:10008000E80000E87648170000E40B54020000CABC
:100090009A3B000000E1F505000080969800000002
:1000A00040420F000000A086010000001027000061
:1000B0000000E803000000006400000000000A00E7
:1000C000000000000100000000002C76D888DC67EA
:1000D0004F0823DFC1DFAE59E1B1B796E5E3E45342
:1000E000C63AE651997696E8E6C28426EB898C9B5F
:1000F00062ED407C6FFCEFBC9C9F40F2BAA56FA5FF
:10010000F490055A2AF75C936B6CF9676DC11BFC80
:10011000E0E40D47FEF520E6B500D0ED902E03009B
:10012000943577050080841E080000204E0A0000E8
:1001300000C80C333333330F986E12831141EF8DA7
:100140002114893BE65516CFFEE6DB18D1844B38E7
:100150001BF77C1D901DA4BBE424203284725E2218
:100160008100C9F124ECA1E53D274E414E494E499D
:100170005459494E46CDCCCC3D0AD7233C17B7D174
:100180003877CC2B329595E6241FB14F0A0000201A
:10019000410000C84200401C4620BCBE4CCA1B0E99
:1001A0005AAEC59D740A0A435050206D656E752085
:1001B00074657374206170706C69636174696F6ECB
:1001C00020302E30310A000011241FBECFEFD8E0BE
:1001D000DEBFCDBF12E0A0E0B1E0EAEAF3E202C088
:1001E00005900D92A630B107D9F723E0A6E0B2E062
:1001F00001C01D92A930B207E1F70E940B050C94D3
:10020000D3110C9400002DE932E042E050E06CE0A4
:1002100070E089E190E00E94F0052BE832E042E0D6
:1002200050E06CE070E089E190E00E94F0050895F4
:10023000882319F05C9A5D9808955C985D9A0895FA
:10024000882319F05F9A289808955F98289A08954E
:10025000CF93DF93EC011816190624F480E00E9476
:10026000180106C0D195C195D10981E00E941801FD
:1002700020E137E240E050E0BE0189E00E94FF0744
:10028000DF91CF910895CF93DF93EC0118161906F3
:1002900024F481E00E94200106C0D195C195D109C6
:1002A00080E00E94200120E137E240E050E0BE0102
:1002B0008AE00E94FF07DF91CF9108951F920F926D
:1002C0000FB60F9211248F939F93329B0AC0809197
:1002D000FF02909100030197909300038093FF0227
:1002E00009C08091FF029091000301969093000352
:1002F0008093FF029F918F910F900FBE0F901F90E0
:1003000018951F920F920FB60F9211248F939F93FF
:10031000339B0AC08091FD029091FE02019690935A
:10032000FE028093FD0209C08091FD029091FE02C1
:1003300001979093FE028093FD029F918F910F9001
:100340000FBE0F901F9018951F920F920FB60F922D
:1003500011248F939F938091FB029091FC02892B33
:1003600051F08091FB029091FC0201979093FC0266
:100370008093FB0223C02B9A88EE93E09093FC02BB
:100380008093FB028091FF02909100039093FA0208
:100390008093F9028091FD029091FE029093B40245
:1003A0008093B3021092FE021092FD02109200039D
:1003B0001092FF0281E0809309022B989F918F9108
:1003C0000F900FBE0F901F90189522C02D9A0E947B
:1003D000F2068D3011F08A3079F4E0910001F0914D
:1003E000010110828AE092E0909301018093000164
:1003F0002D9881E090E00895E0910001F0910101D5
:100400009F012F5F3F4F30930101209300018083B4
:100410000E94EE06882349F080910001909101012D
:100420008A5092408038910588F22D9880E090E0C3
:100430000895F999FECF6091A3027091A40282E021
:1004400090E00E94B011F999FECF6091A5027091E1
:10045000A60284E090E00E94B011F999FECF60916D
:10046000A7027091A80286E090E00E94B011F9996D
:10047000FECF609191027091920288E090E00E941C
:10048000B011F999FECF60919302709194028AE0C5
:1004900090E00E94B011F999FECF609195027091A1
:1004A00096028CE090E00E94B0110895CF92DF9206
:1004B000EF92FF920F931F93CF93DF936C017B0119
:1004C000F999FECF82E090E00E94AA11EC0184E04D
:1004D00090E00E94AA118C0186E090E00E94AA118F
:1004E000AC019601B801CE010E94F00588E090E0D1
:1004F0000E94AA11EC018AE090E00E94AA118C01EE
:100500008CE090E00E94AA119701AC01B801CE01E5
:100510000E94F005DF91CF911F910F91FF90EF9016
:10052000DF90CF900895CF93DF93EC0163E171E00A
:100530000E94AA0E892B51F066E171E0CE010E9463
:10054000AA0E21E0892B19F420E001C021E0822FBE
:10055000DF91CF9108954F925F926F927F928F9229
:100560009F92AF92BF92CF92DF92EF92FF920F9342
:100570001F93CF93DF93CDB7DEB7A0970FB6F89454
:10058000DEBF0FBECDBF8AE092E09F938F9381E2E2
:1005900091E09F938F930E942F0F68E371E08AE0B0
:1005A00092E00E94A50E8E010F5F1F4F0F900F90DB
:1005B0000F900F906801E12CF12C2FEFE21AF20A54
:1005C000F601819391936F0168E371E080E090E020
:1005D0000E94A50E009721F41E141F042CF024C0C5
:1005E000F0E1EF16F10449F7EE0CFF1C81E090E01A
:1005F0008C0F9D1FE80EF91E0F2EFBE3CF2EF1E0AE
:10060000DF2EF02DF801808191810E5F1F4F9F93A7
:100610008F93DF92CF920E942F0F0F900F900F9029
:100620000F900E151F0571F78AE090E00E946B0F86
:1006300009811A816FE371E0C8010E94AA0E892B1B
:10064000D1F48B819C810E949302809302018111DD
:1006500003C08DE191E002C08AE191E09F938F9306
:1006600083E491E09F938F930E942F0F0F900F9040
:100670000F900F90B9C16BE471E0C8010E94AA0EFF
:10068000892B11F58B819C810E9493028093080233
:1006900081110BC01092B0021092AF021092B20200
:1006A0001092B1028DE191E002C08AE191E09F9346
:1006B0008F938FE491E09F938F930E942F0F0F9061
:1006C0000F900F900F9090C167E571E0C8010E94F4
:1006D000AA0E892B89F48B819C810E94A40D909392
:1006E000B2028093B1028D819E810E94A40D9093ED
:1006F000B0028093AF0278C16BE571E0C8010E943F
:10070000AA0E892BC9F48091B0028F938091AF0219
:100710008F938091B2028F938091B1028F9380E684
:1007200091E09F938F930E942F0F0F900F900F9047
:100730000F900F900F9058C16EE671E0C8010E94B3
:10074000AA0E892BD1F48B819C810E949302809305
:100750000301811103C08DE191E002C08AE191E0C3
:100760009F938F9382E791E09F938F930E942F0F27
:100770000F900F900F900F9037C16AE771E0C8019A
:100780000E94AA0E892B09F082C00BE812E0F80142
:1007900062857385072E000C880B990B0E946208F6
:1007A00020E030E040E05CE30E94C6089F938F9316
:1007B0007F936F93F80160857185072E000C880B7D
:1007C000990B0E94620820E030E040E05CE30E9468
:1007D000C6089F938F937F936F93F801668177810B
:1007E000072E000C880B990B0E94620820E030E075
:1007F00040E05CE30E94C6089F938F937F936F93C2
:100800000DE912E0F80162857385072E000C880B54
:10081000990B0E94620820E030E040E05CE30E9417
:10082000C6089F938F937F936F93F80160857185BE
:10083000072E000C880B990B0E94620820E030E024
:1008400040E05CE30E94C6089F938F937F936F9371
:10085000F80166817781072E000C880B990B0E94A6
:10086000620820E030E040E05CE30E94C6089F930D
:100870008F937F936F938FE791E09F938F930E9465
:100880002F0F0FB6F894DEBF0FBECDBFADC068E925
:1008900071E0C8010E94AA0E892B09F06CC08DE995
:1008A00091E00E94720F8B819C810E94A00DF62E18
:1008B000072F182FE92E8D819E810E94A00DA62E54
:1008C000B72EC82ED92E8F8198850E94A00D662E36
:1008D000772E882E992E9F938F937F936F93DF921D
:1008E000CF92BF92AF92EF921F930F93FF9283EB41
:1008F00091E09F938F930E942F0F20E030E040E023
:1009000053E4662D772D882D992D0E94C6080E94EC
:100910002A082B013C0120E030E040E053E46A2D3E
:100920007B2D8C2D9D2D0E94C6080E942A084B010C
:100930005C0120E030E040E053E46F2D702F812F08
:100940009E2D0E94C6080E942A086B017C012DE999
:1009500032E0A201B401C6010E94F0052BE832E0AA
:10096000A201B401C6010E94F0050FB6F894DEBFE3
:100970000FBECDBF39C069EC71E0C8010E94AA0E5C
:10098000892B19F40E9419022FC06FEC71E0C80185
:100990000E94AA0E892B39F46BE872E08DE992E08F
:1009A0000E94560221C067ED71E0C8010E94AA0EA4
:1009B000892BD1F484E10E94210728EE33E0DC0189
:1009C0000E942C0D20E831E040E050E00E940D0D27
:1009D0003F932F938CED91E09F938F930E942F0F65
:1009E0000F900F900F900F90A0960FB6F894DEBF67
:1009F0000FBECDBFDF91CF911F910F91FF90EF9070
:100A0000DF90CF90BF90AF909F908F907F906F902E
:100A10005F904F90089582EF8AB98FE08BB917B835
:100A20008CE388B98FE284B915B860E071EE80E09C
:100A300090E00E94D10684E091E0909304038093BB
:100A40000303F999FECF80E00E9410070E943D0742
:100A500020E137E240E050E060E070E089E00E9491
:100A6000FF0720E137E240E050E060E070E08AE01C
:100A70000E94FF075E9AEFE6F0E08081816080834C
:100A80008FE08093690083E08DBB78940E9403011E
:100A900085EA91E09F938F930E94450F0F900F90EE
:100AA00005E010E0C6EED1E00E94E501892B11F0CF
:100AB0000E94AB02209109022223B1F32091080287
:100AC000222381F08EE00E94210792509093B2027F
:100AD0008093B1028FE00E94210792509093B00260
:100AE0008093AF02209103012223B9F18091B102DA
:100AF0009091B202009749F480E090E00E942801B2
:100B00008DE992E00E94CB060CC06091F9027091D1
:100B1000FA024DE952E00E941D06F82EE92E0E94CD
:100B200028018091AF029091B002009749F480E0D3
:100B300090E00E9443018DE992E00E94CB0621C023
:100B40006091B3027091B4024BE852E00E941D061E
:100B5000D82EC92E0E94430114C08091B1029091F9
:100B6000B202B8010E94D70CCB010E9428018091EB
:100B7000AF029091B002B8010E94D70CCB010E9445
:100B8000430120910201222341F1CF92DF92809113
:100B9000B4028F938091B3028F938091B0028F93B0
:100BA0008091AF028F93EF92FF928091FA028F9320
:100BB0008091F9028F938091B2028F938091B1025C
:100BC0008F93DF93CF930E942F0F8DB79EB70E9612
:100BD0000FB6F8949EBF0FBE8DBF1092090264CF6E
:100BE000CF93DF93FB01E9011A821B821C821D82D5
:100BF000198218829F838E83798768875B874A87EB
:100C0000BC016F5F7F4F8FEF9FE70E94D70C7D87FE
:100C10006C879F012F5F3F4F032E000C440B550B39
:100C20006FEF7FEF8FEF9FE30E940D0D2E873F87C1
:100C3000488B598BDF91CF910895EF92FF920F93DC
:100C40001F93CF93DF938B01FA01861B970B2485AB
:100C500035852817390784F0319521953109821798
:100C600093076CF026813781829FE001839FD00D2E
:100C7000929FD00D112405C0CFEFDFE702C0C1E085
:100C8000D0E8092E000CAA0BBB0B42815381648172
:100C900075819A01AB01280F391F4A1F5B1F86859A
:100CA0009785A089B18982179307A407B5074CF4EB
:100CB00082839383A483B5836FEF7FEF8FEF9FE3EE
:100CC0001DC0B095A095909581959F4FAF4FBF4F98
:100CD000281739074A075B074CF482839383A48360
:100CE000B58361E070E080E090EC08C0228333833C
:100CF00044835583A085B1850E94330D20813181C5
:100D0000201B310BA285B3852A9F70012B9FF00C0D
:100D10003A9FF00C1124118300838E01DD0F220B0A
:100D2000330BAB01BC01400F511F621F731FC70182
:100D3000FF0CAA0BBB0B480F591F6A1F7B1FDB015F
:100D4000CA01772324F481589F4FAF4FBF4F689457
:100D500016F8B595A795979587951694D1F7813094
:100D600020E892072FEFA207B20724F481E090E871
:100D7000AFEFBFEF811520E89207A105B10524F080
:100D80008FEF9FE7A0E0B0E0DF91CF911F910F912F
:100D9000FF90EF900895FC01128213821482158255
:100DA00008959B01AC0160E472E48FE090E00E9442
:100DB000EB0CBA01A9014150510961097109BB2726
:100DC000A72F962F852F8093C5004093C40088E1FC
:100DD0008093C10086E08093C20008958091C00096
:100DE00080780895E0ECF0E080818823ECF7809132
:100DF000C6000895E0ECF0E0908195FFFDCF809370
:100E0000C6000895CF93C82F8A3019F48DE00E9450
:100E1000FA068C2F0E94FA0680E090E0CF910895A8
:100E200080931201EAE7F0E0808184608083808112
:100E300082608083808181608083808180688083FC
:100E400008958E3008F08E5087709091120140E422
:100E5000949F90011124282B20937C00EAE7F0E076
:100E6000808180648083808186FDFDCF80917800C1
:100E70002091790090E0922B08951092800080E1FB
:100E80008093810008959B01AC0160E472E48FE0DF
:100E900090E00E940D0DDA01C901880F991FAA1F69
:100EA000BB1F880F991FAA1FBB1F880F991FAA1F5E
:100EB000BB1F009721E0A207B10524F421E0209395
:100EC0008A024BC0689412F8B595A79597958795B7
:100ED0001694D1F7009721E0A207B10524F422E08F
:100EE00020938A023AC0689412F8B595A795979511
:100EF00087951694D1F7009721E0A207B10524F455
:100F000023E020938A0229C0B595A79597958795E8
:100F1000B595A79597958795009721E0A207B1050C
:100F200024F424E020938A0218C0B595A7959795DC
:100F30008795B595A79597958795009721E0A20786
:100F4000B10524F425E020938A0207C085E0809350
:100F50008A028FEF9FEFA0E0B0E02FB7F894909354
:100F6000F6028093F50290938700809386002FBF4E
:100F7000E1E8F0E08081887F8083908180918A021F
:100F8000892B80830895E82F6536710514F064E697
:100F900070E04091F5025091F6029A01220F331F42
:100FA000440F551F440F551F440F551F240F351F65
:100FB00040E050E0DB01BB2314F4A0E0B0E00E946D
:100FC000330DAB01BC01032E3AE07695679557953A
:100FD00047953A95D1F7302D9FB7F8948E2F877F9C
:100FE000813029F4509389004093880006C08230F4
:100FF00021F450938B0040938A009FBF08950F9374
:101000001F93CF93E82FDB0197EF980F9230F0F406
:101010001216130614061506CCF4CA01B9018D0187
:10102000CE2F0E944307C93039F4219AE0E8F0E05E
:1010300080818068808306C0229AE0E8F0E08081A9
:1010400080628083B8018C2F0E94C307CF911F91CB
:101050000F9108950E9431086894B1110C94C00852
:1010600008950E94A50888F09F5798F0B92F9927F6
:10107000B751B0F0E1F0660F771F881F991F1AF083
:10108000BA95C9F714C0B13091F00E94BF08B1E021
:1010900008950C94BF08672F782F8827B85F39F020
:1010A000B93FCCF3869577956795B395D9F73EF41C
:1010B00090958095709561957F4F8F4F9F4F0895C4
:1010C000E89409C097FB3EF49095809570956195E2
:1010D0007F4F8F4F9F4F9923A9F0F92F96E9BB2798
:1010E0009395F695879577956795B795F111F8CF14
:1010F000FAF4BB0F11F460FF1BC06F5F7F4F8F4F7F
:101100009F4F16C0882311F096E911C0772321F074
:101110009EE8872F762F05C0662371F096E8862F0C
:1011200070E060E02AF09A95660F771F881FDAF763
:10113000880F9695879597F9089557FD9058440F15
:10114000551F59F05F3F71F04795880F97FB991F26
:1011500061F09F3F79F087950895121613061406E3
:10116000551FF2CF4695F1DF08C016161706180670
:10117000991FF1CF86957105610508940895E8944B
:10118000BB2766277727CB0197F908950E94D908D6
:101190000C944A090E943C0938F00E94430920F04F
:1011A000952311F00C9433090C94390911240C94F3
:1011B000C0080E949D0870F3959FC1F3950F50E001
:1011C000551F629FF001729FBB27F00DB11D639FF9
:1011D000AA27F00DB11DAA1F649F6627B00DA11D9F
:1011E000661F829F2227B00DA11D621F739FB00D45
:1011F000A11D621F839FA00D611D221F749F3327B5
:10120000A00D611D231F849F600D211D822F762F4D
:101210006A2F11249F5750409AF0F1F088234AF02A
:10122000EE0FFF1FBB1F661F771F881F9150504096
:10123000A9F79E3F510580F00C9433090C94C00827
:101240005F3FE4F3983ED4F3869577956795B7951D
:10125000F795E7959F5FC1F7FE2B880F911D969537
:10126000879597F9089597F99F6780E870E060E0A7
:1012700008959FEF80EC089500240A94161617062F
:1012800018060906089500240A9412161306140677
:1012900005060895092E0394000C11F4882352F0DA
:1012A000BB0F40F4BF2B11F460FF04C06F5F7F4F92
:1012B0008F4F9F4F0895A3E1B0E0E1E6F9E00C9471
:1012C0003B0D6C014B012A01FC01178216828381C0
:1012D00081FF43C3AE014F5F5F4F3A01F601938137
:1012E000F40193FD859193FF81914F01882309F4C7
:1012F00030C3853239F493FD859193FF81914F017D
:10130000853239F4B60190E00E94F70E52012501B2
:10131000E5CF10E0F12C20E02032A0F48B3269F010
:1013200030F4803259F0833269F420612CC08D3260
:1013300039F0803339F4216026C02260246023C054
:10134000286021C027FD27C030ED380F3A3078F4EF
:1013500026FF06C0FAE01F9F300D1124132F13C083
:101360004AE0F49E300D1124F32E20620CC08E3220
:1013700021F426FDEEC2206406C08C3611F42068EC
:1013800002C0883641F4F40193FD859193FF819169
:101390004F018111C1CF9BEB980F933018F420615E
:1013A000805E06C09BE9980F933008F071C12F7ED4
:1013B00026FF16E02F73322E853619F42064322E64
:1013C00008C0863621F4F22FF0683F2E02C01111BA
:1013D000115037FE07C01C3350F4EE24E394E10EA5
:1013E00027E00BC0183038F027E017E005C027E0F1
:1013F0004CE3E42E02C0212FE12C520144E0A40E64
:10140000B11CF20160817181828193810E2DA30153
:101410000E94C20D2C01098100FF02C003FF07C01A
:1014200031FC08C032FE09C030E2232E07C02DE295
:10143000222E04C09BE2292E01C0212C802F8C700B
:1014400019F0211068C2A8C237FE0FC0E40C04FFD7
:1014500004C08A81813309F4EA941E1474F5F8E01B
:10146000FE1578F588E0E82E2CC036FC2AC0812FC6
:1014700090E0841595059CF02CEF42162FEF520654
:1014800074F0432D4068342E0AC0E2E0F0E0EC0F27
:10149000FD1FE10FF11D8081803319F411501111EE
:1014A000F4CF37FE0EC0EE24E394E10E812F90E0DE
:1014B000481659062CF4141904C0EE24E39401C014
:1014C00010E037FE06C01414150434F4C20101966E
:1014D00005C085E090E002C081E090E02110019617
:1014E000112331F0212F30E02F5F3F4F820F931FE8
:1014F0002F2D30E08217930714F4F81A01C0F12C55
:10150000832D897049F4FF2039F0B60180E290E024
:101510000E94F70EFA94F7CF222029F0B601822D0F
:1015200090E00E94F70E33FC09C0FF2039F0B601AD
:1015300080E390E00E94F70EFA94F7CF37FE5AC08E
:10154000942D852D57FE02C090E080E0292E382E84
:1015500020E030E0A2014E1951095D874C87A201BD
:10156000421953095F874E87612F70E04427552742
:10157000461B570B598B488B5FEF2516350649F4F0
:10158000B6018EE290E02A8B3B8B0E94F70E3B89DE
:101590002A89421453046CF04C855D85421553052D
:1015A00044F4EE85FF85E20FF31FE60DF71D818100
:1015B00001C080E351E0251A31082F5F3F4F488971
:1015C0005989241635064CF0B60190E02A8B3B8BE6
:1015D0000E94F70E2A893B89CFCF2414350439F4B1
:1015E0009A81963318F4953311F404FF81E3B60120
:1015F00090E04BC08A81813309F00F7EB60190E004
:101600000E94F70E111105C034FC18C085E690E069
:1016100017C0B6018EE290E00E94F70E82E0EE2441
:10162000E394E80EF301E80FF11D8081B60190E02C
:101630000E94F70E11508E2D91F7E6CF85E490E0D1
:10164000B6010E94F70E57FC05C04114510439F44D
:1016500004FF05C05194419451088DE201C08BE212
:10166000B60190E00E94F70E80E39AE0491651041B
:101670002CF08F5F5AE0451A5108F7CFB60190E081
:101680000E94F70EB601C201C0960E94F70E57C124
:10169000833631F0833779F0833509F058C021C0A3
:1016A0005201E2E0AE0EB11CF2018081898301E0BB
:1016B00010E0230114C05201F2E0AF0EB11CF201A0
:1016C0004080518026FF03C0612F70E002C06FEFA1
:1016D0007FEFC2012A8B0E94BD0E8C012A892F77D1
:1016E00015C05201F2E0AF0EB11CF20140805180F2
:1016F00026FF03C0612F70E002C06FEF7FEFC201D1
:101700002A8B0E949A0E8C012A892068322E23FD92
:101710001AC08F2D90E008171907A8F4B60180E2CF
:1017200090E00E94F70EFA94F4CFF20137FC859115
:1017300037FE81912F01B60190E00E94F70EF11063
:10174000FA94015011090115110579F7F8C0843692
:1017500011F0893659F5520127FF09C0F4E0AF0EA8
:10176000B11CF20160817181828193810AC0F2E033
:10177000AF0EB11CF20160817181072E000C880B45
:10178000990B2F76322E97FF09C090958095709512
:1017900061957F4F8F4F9F4F2068322E2AE030E0B7
:1017A000A3010E94A20FE82EE6183FC0022F853742
:1017B00021F40F7E2AE030E01DC0097F8F3691F0C2
:1017C00018F4883559F0C5C0803719F0883711F002
:1017D000C0C0006104FF09C0046007C024FF08C046
:1017E000066006C028E030E005C020E130E002C01D
:1017F00020E132E0520107FF09C0F4E0AF0EB11C56
:10180000F201608171818281938108C0F2E0AF0EA4
:10181000B11CF2016081718180E090E0A3010E941F
:10182000A20FE82EE6180F77302E36FE0BC0332DB0
:101830003E7FE11650F434FE0AC032FC08C0332D5E
:101840003E7E05C00E2D332D03C00E2D01C0012F8D
:1018500034FF0CC0FE01EE0DF11D8081803311F4C8
:10186000397E08C032FF05C00E5F04C0832F867822
:1018700009F00F5F33FD13C030FF06C01E2D0F159A
:1018800018F41F0D101B0F2D0F1568F4B60180E220
:1018900090E03B8B0E94F70E0F5F3B89F5CF0F1551
:1018A00010F4F01A01C0F12C34FF12C0B60180E32D
:1018B00090E03B8B0E94F70E3B8932FF17C031FD51
:1018C00003C088E790E002C088E590E0B6010CC054
:1018D000832F867859F031FF02C08BE201C080E28D
:1018E00037FD8DE2B60190E00E94F70EE11638F464
:1018F000B60180E390E00E94F70E1150F7CFEA9412
:10190000F301EE0DF11D8081B60190E00E94F70E0B
:10191000E110F5CF14C0F4E0FF1558F584E0F81A93
:1019200033FE1EC0211026C003FF2AC008E610E0C7
:10193000F32DF0713F2EF8018491811124C0FF2016
:1019400009F4E5CCB60180E290E00E94F70EFA942B
:10195000F6CFF6018681978126C08FEF9FEF23C0D7
:10196000B60180E290E00E94F70EFA94F110F8CFF1
:10197000D9CFF12CB601822D90E00E94F70ED4CF82
:101980000CE610E0D5CF31108052B60190E00E94F5
:10199000F70E0F5F1F4FCFCF23E02F1510F483E01A
:1019A000BECFF12CC1CF6396E2E10C94570D97FBAB
:1019B000072E16F4009407D077FD09D00E94720D0F
:1019C00007FC05D03EF4909581959F4F0895709542
:1019D00061957F4F0895A1E21A2EAA1BBB1BFD0142
:1019E0000DC0AA1FBB1FEE1FFF1FA217B307E407FE
:1019F000F50720F0A21BB30BE40BF50B661F771F56
:101A0000881F991F1A9469F7609570958095909535
:101A10009B01AC01BD01CF010895052E97FB1EF47B
:101A200000940E94240D57FD07D00E94EB0C07FC88
:101A300003D04EF40C94240D50954095309521958B
:101A40003F4F4F4F5F4F08959095809570956195EA
:101A50007F4F8F4F9F4F08950E94860DB7FF0895C7
:101A6000821B930B0895B7FF0C94950D0E94950D62
:101A7000821B930B08952F923F924F925F926F9229
:101A80007F928F929F92AF92BF92CF92DF92EF920E
:101A9000FF920F931F93CF93DF93CDB7DEB7CA1B8F
:101AA000DB0B0FB6F894DEBF0FBECDBF09942A88BA
:101AB000398848885F846E847D848C849B84AA8462
:101AC000B984C884DF80EE80FD800C811B81AA81EF
:101AD000B981CE0FD11D0FB6F894DEBF0FBECDBFBA
:101AE000ED010895AA1BBB1B51E107C0AA1FBB1F34
:101AF000A617B70710F0A61BB70B881F991F5A959A
:101B0000A9F780959095BC01CD010895A29FB001E1
:101B1000B39FC001A39F700D811D1124911DB29F21
:101B2000700D811D1124911D08950E94860DA59FA1
:101B3000900DB49F900DA49F800D911D11240895C8
:101B4000662777270C940010FC0188279927E894D2
:101B500021912032E9F3293010F02E30C8F32B32D6
:101B600041F02D3239F4689404C00E94EF0E820FC8
:101B7000911D219120532A30C0F31EF49095819538
:101B80009F4F0895283008F027E03327DA01990F96
:101B9000311D87FD916000966105710539F4326051
:101BA0002E5F3D9330E32A95E1F708959F3F30F093
:101BB00080387105610509F03C5F3C5F3D939130D1
:101BC00008F08068911DDF93CF931F930F93FF92CE
:101BD000EF92192F987F9695E92F96959695E90F94
:101BE000FF27E653FF4F99273327EE24FF24A70151
:101BF000E70105900894079428F4360FE71EF81EB5
:101C0000491F511D660F771F881F991F0694A1F762
:101C10000590079428F4E70EF81E491F561FC11DB2
:101C2000770F881F991F661F0694A1F705900794E8
:101C300028F4F80E491F561FC71FD11D880F991F82
:101C4000661F771F0694A1F70590079420F4490FAB
:101C5000561FC71FD81F990F661F771F881F06942E
:101C6000A9F784911095177041F0D695C7955795AF
:101C70004795F794E7941A95C1F7E0E7F0E0689488
:101C80001590159135916591959105907FE2739529
:101C9000E118F10A430B560BC90BD009C0F7E10C50
:101CA000F11E431F561FC91FD01D7EF4703311F45F
:101CB0008A95E6CFE894015030F0080F0AF4002727
:101CC000021708F4202F2395022F7A3328F079E3A6
:101CD0007D932A95E9F710C07D932A9589F606949D
:101CE00097956795379517951794E118F10A430B67
:101CF000560BC90BD00998F023957E9173957A33D2
:101D000008F070E37C932013B8F77E9170617D93A7
:101D100030F0839571E37D9370E32A95E1F7112408
:101D2000EF90FF900F911F91CF91DF91992787FD41
:101D300090950895FC010590615070400110D8F70E
:101D4000809590958E0F9F1F089546E052E00E9467
:101D5000C80E0895FB01DC018D9181341CF08B3598
:101D60000CF4805E619161341CF06B350CF4605EA4
:101D7000861B611189F3990B0895FC016150704035
:101D800001900110D8F7809590958E0F9F1F0895B0
:101D9000FA01A191B081009719F41097E1F0CD01FB
:101DA000DC01CD010D90002011F4C00113C0FB0136
:101DB0002191222319F02015D9F7F3CFFB012191AE
:101DC000201519F41E92119606C02223C1F70D901A
:101DD0000020A1F7D001FA01A193B08308957AE021
:101DE000979F902D879F802D910D112408950F931B
:101DF0001F93CF93DF93FB01238121FD03C08FEF5E
:101E00009FEF28C022FF16C046815781248135816B
:101E10004217530744F4A081B1819D012F5F3F4FCA
:101E2000318320838C93268137812F5F3F4F378307
:101E3000268310C0EB01092F182F0084F185E02DB7
:101E40000995892BE1F68E819F8101969F838E8370
:101E5000812F902FDF91CF911F910F910895A0E0D6
:101E6000B0E0E5E3FFE00C944B0DAE014B5F5F4F3C
:101E7000FA0161917191AF01809103039091040384
:101E80000E945B09E2E00C94670DA0E0B0E0EBE497
:101E9000FFE00C94490DAE01495F5F4FDA016D918F
:101EA0007D91AD0101E013E0F80182819381DC01B5
:101EB00013962C911397286013962C930E945B091C
:101EC000D8011296ED91FC9113972381277F2383EC
:101ED000E4E00C94650D60910303709104030E948B
:101EE000F70E08950F931F93CF93DF93E0910303B1
:101EF000F0910403238121FF1BC08C01D0E0C0E0DE
:101F0000F80181918F016091030370910403DB015B
:101F10001896ED91FC911997882331F00995892B3A
:101F200079F3DFEFCFEFECCF8AE00995892B19F039
:101F30008FEF9FEF02C08D2F9C2FDF91CF911F91CC
:101F40000F910895FA01AA27283051F1203181F12B
:101F5000E8946F936E7F6E5F7F4F8F4F9F4FAF4FB1
:101F6000B1E03ED0B4E03CD0670F781F891F9A1FC4
:101F7000A11D680F791F8A1F911DA11D6A0F711D78
:101F8000811D911DA11D20D009F468943F912AE084
:101F9000269F11243019305D3193DEF6CF0108956C
:101FA000462F4770405D4193B3E00FD0C9F7F6CF9D
:101FB000462F4F70405D4A3318F0495D31FD405265
:101FC000419302D0A9F7EACFB4E0A69597958795FB
:101FD00077956795BA95C9F70097610571050895DA
:101FE0009B01AC010A2E0694579547953795279586
:101FF000BA95C9F7620F731F841F951FA01D08951E
:10200000A0E0B0E0E6E0F0E10C943F0DEC017B01D4
:102010006115710519F0DB018D939C938E010F5FA3
:102020001F4F7880872D90E00E945D11892B11F061
:10203000E801F4CFBDE27B1205C00F5F1F4F79802E
:10204000C1E008C0EBE27E1204C08E010E5F1F4F9C
:102050007980C0E06801F1E0CF1AD10843E050E098
:1020600062E771E0C6010E946611892BF1F46801F4
:1020700022E0C20ED11C45E050E06DE671E0C601E1
:102080000E946611892B21F4680187E0C80ED11CDB
:10209000E114F10419F0D701CD92DC92C111FFC017
:1020A00060E070E080E89FE703C143E050E06AE64B
:1020B00071E0C6010E946611892B51F4E114F1040C
:1020C00009F4F2C00E5F1F4FF70111830083ECC0CB
:1020D000680160E070E0CB0100E010E0F601D0EDB7
:1020E000D70DDA3058F52C2F2260622E2C2F287055
:1020F000C2FF05C0211128C00F5F1F4F25C022233A
:1021000011F001501109A5E0B0E09B01AC010E9463
:10211000950D4B015C01880C991CAA1CBB1CC501C8
:10212000B4016D0F711D811D911D6839A9E97A07F0
:102130008A07A9E19A0740F0C66005C0DE3F51F466
:10214000C3FD44C0C8606C2EBFEFCB1ADB0A7080A1
:10215000C62DC4CF2D2F2F7D2531C1F540814D32A5
:1021600011F4C06106C04B3221F0319621E030E01D
:1021700006C03296D60111964C9122E030E0A0EDD7
:10218000A40FAA3018F0E21BF30B20C040E050E08F
:102190004038BCE05B075CF49A01220F331F220F2A
:1021A000331F420F531F440F551F4A0F511D3196C5
:1021B000DF0111972C91A0EDA20FAA3048F3C4FFC4
:1021C00003C0519541955109040F151FC1FF07C068
:1021D000E114F10421F03197D701ED93FC930E94B3
:1021E0006008C370C33019F06B017C0106C06B013D
:1021F0007C01F7FAF094F7F8F09420E030E0A901C0
:10220000C701B6010E947E11882309F445C017FF5B
:1022100006C0119501951109C9E8D1E002C0C1EAD3
:10222000D1E05E01B8E1AB1AB1084601BE2DAF2D79
:1022300090E2E92EF12C0E151F0584F0FE01259188
:10224000359145915491B4018B2F9A2F0E94C60865
:102250004B01B82FA92F0E191F09EDCF2497F59424
:10226000E794CA15DB0539F76401EB2EFA2E8E2DA3
:10227000880F8F2D881F8F3F49F020E030E0A901A3
:10228000C701B6010E947E11811106C082E290E072
:102290009093080380930703C701B60109C060E06B
:1022A00070E080E89FEF04C060E070E080EC9FE7A2
:1022B000CDB7DEB7EEE00C945B0D91110C94A71135
:1022C000803219F089508550C8F70895FB01DC0170
:1022D0004150504088F08D9181341CF08B350CF4C6
:1022E000805E659161341CF06B350CF4605E861B7A
:1022F000611171F3990B0895881BFCCF0E94831123
:1023000008F481E00895990F0008550FAA0BE0E842
:10231000FEEF16161706E807F907C0F012161306A7
:10232000E407F50798F0621B730B840B950B39F4E7
:102330000A2661F0232B242B252B21F408950A264D
:1023400009F4A140A6958FEF811D811D089599275D
:1023500088270895A8E1B0E042E050E00C94B7115E
:102360000E94C511272F0C94C611DC01CB01FC0182
:10237000F999FECF06C0F2BDE1BDF89A319600B4DE
:102380000D9241505040B8F70895262FF999FECF8D
:102390001FBA92BD81BD20BD0FB6F894FA9AF99A82
:0A23A0000FBE01960895F894FFCFD8
:1023AA000A0201010000000200000000020700000A
:1023BA000000016F6E006F6666004F6E004F666622
:1023CA000054686520636F6D6D616E642077617378
:1023DA003A20272573270A00202C0025732C006F2A
:1023EA00646F004F444F2025730A00616463004103
:1023FA0044432025730A006D6F74006765746D008D
:10240A006D6F746F723A2025642C25640A00706916
:10241A0064005049442025730A006765747000708F
:10242A0069643A2025662C25662C25662C202566AB
:10243A002C25662C25660A0073657470005472791F
:10244A00696E67206E657720504944207061726119
:10245A006D73004E657720504944203D2025662C37
:10246A002025662C2025660A007361766570007245
:10247A006563616C6C7000676574620056626174B2
:10248A00743A25640A006F646F3A20253464202563
:10249A00346420253564202534642C2025346420B6
:0624AA002535640A000064
:00000001FF
